:02000002E0001C
:1000000000000420B5020E00DD020E00DF020E002B
:10001000E1020E00E3020E00E5020E000000000007
:10002000000000000000000000000000E7020E00D9
:10003000E9020E0000000000EB020E00ED020E00CF
:10004000D9360E00EF020E00EF020E00EF020E0096
:10005000EF020E00EF020E00EF020E00EF020E00A4
:10006000EF020E00EF020E00EF020E00EF020E0094
:10007000EF020E00EF020E00EF020E00EF020E0084
:1000800069550E00A52A0E00EF020E00EF020E00C9
:10009000EF020E00EF020E00EF020E00EF020E0064
:1000A000EF020E00EF020E00EF020E00EF020E0054
:1000B000EF020E00EF020E00000000000000000042
:1000C000EF020E00EF020E00EF020E00EF020E0034
:1000D000F9510E00EF020E00EF020E00B1460E00C5
:1000E000EF020E00EF020E0059870E000000000024
:1000F00000000000EF020E0000000000EF020E0002
:1001000000000000000000000000000000000000EF
:1001100000000000000000000000000000000000DF
:1001200000000000000000000000000000000000CF
:1001300000000000000000000000000000000000BF
:1001400000000000000000000000000000000000AF
:10015000000000000000000000000000000000009F
:10016000000000000000000000000000000000008F
:10017000000000000000000000000000000000007F
:10018000000000000000000000000000000000006F
:10019000000000000000000000000000000000005F
:1001A000000000000000000000000000000000004F
:1001B000000000000000000000000000000000003F
:1001C000000000000000000000000000000000002F
:1001D000000000000000000000000000000000001F
:1001E000000000000000000000000000000000000F
:1001F00000000000000000000000000000000000FF
:1002000010B5054C237833B9044B13B10448AFF350
:1002100000800123237010BDD000002000000000EA
:1002200038970E0008B5034B1BB103490348AFF3E1
:10023000008008BD00000000D400002038970E00A8
:10024000154B002B08BF134B9D46A3F5803A0021A8
:100250008B460F461348144A121A08F0FDFA0F4B4A
:10026000002B00D098470E4B002B00D09847002061
:10027000002104000D000D48002802D00C48AFF307
:10028000008008F08FFA2000290004F09DFD08F09E
:1002900075FA00BF00000800000004200000000004
:1002A00000000000D00000202442002000000000D8
:1002B000000000000649074A074B9B1A03DD043B78
:1002C000C858D050FBDC00F04DF9FFF7B9FF000033
:1002D00068970E0008000020D0000020FEE7FEE72F
:1002E000FEE7FEE7FEE7FEE7FEE7FEE7FEE7FEE7E6
:1002F00000207047011F014802F02DBE4C970E00F0
:1003000013B5074C0A4601AB0146204602F060FFD8
:10031000019A0448214601F079FE02B010BD00BFE9
:100320008F19002084910E0001F072B810B50446B8
:100330001A4802F0D7FD1A4B18481C6002F0E9FD7C
:1003400048B3184B002140F603020330C3E9021200
:1003500058601970144B154959601549C3E90212C8
:10036000144A1A61144A5A6102F0C0FF852800D06D
:1003700090B9002003F010F870B902F0DDF90F48D1
:1003800000F046FE40B90E4800F0E4FE20B9BDE89A
:10039000104000F0A9BE032010BD00BF4C970E0016
:1003A00074010020181A0020001A002001030E001A
:1003B000F5020E00A819002044970E00A8910E0027
:1003C00084910E00083810B5062820D8DFE800F028
:1003D00008141B1F1F1F0400BDE8104000F09EBE44
:1003E00003F06AFE08B900F097FE094B1B6873B171
:1003F0000120BDE81040184700F0A2FE044B1B6826
:100400002BB10220F5E7BDE8104000F089BE10BD19
:100410007401002003780BB900F0FABF014A0421EF
:1004200000F0C6BA29030E00F8B5E9B9134E144C12
:10043000144F3178124802F0FFFE054660B9384685
:10044000D4E9011206F000FF0F4802F062FD18B176
:100450000330C4E9010525700C480122314601F042
:10046000F7FD0028E5D0F8BD0229FCD1BDE8F84031
:1004700002490648012201F0EBBD00BFC01900206F
:10048000181A0020001A00204C970E0084910E00CC
:10049000074B1B5C1F2B86BF064903F01F034FF061
:1004A000A041012202FA03F3C1F80C35704700BFE6
:1004B000B4910E000003005008B50020FFF7E8FFDC
:1004C0000120FFF7E5FF0220FFF7E2FFBDE808404B
:1004D0000320FFF7DDBF00000A4B185C1F288ABF0E
:1004E000094B4FF0A04300F01F00D3F80425012171
:1004F000814021EA02000A40C3F80805C3F80C2530
:10050000704700BFB4910E0000030050C20710B541
:1005100004460DD50A4A0323C2F83C37C2F82837EF
:100520004FF0A042C2F80037C2F80037FFF7C4FF0F
:10053000A30742BF024B0C22C3F8082710BD00BF1F
:1005400000030050054B1B68082B01BF044B1868C3
:10055000B0FA80F0400918BF002070473001001049
:100560003401001008B54FF080430022C3F80C217D
:10057000C3F81021C3F838254FF0805203F54043EB
:10058000D2F80414C3F82015D2F80814C3F82415BF
:10059000D2F80C14C3F82815D2F81014C3F82C158F
:1005A000D2F81414C3F83015D2F81814C3F834155F
:1005B000D2F81C14C3F84015D2F82014C3F844151F
:1005C000D2F82414C3F84815D2F82814C3F84C15EF
:1005D000D2F82C14C3F85015D2F83014C3F85415BF
:1005E000D2F83414C3F86015D2F83814C3F864157F
:1005F000D2F83C14C3F86815D2F84014C3F86C154F
:10060000D2F84424C3F87025FFF79CFF10B1384B93
:10061000384A1A60FFF796FF18B1374BFB22C3F830
:100620001825FFF78FFF48B13449354B0A681B681E
:1006300022F00F0203F00F0313430B60FFF782FF5A
:1006400018B1304B4FF400721A604FF08043D3F86A
:100650000024D20744BF6FF00102C3F800242A4AE5
:10066000D2F8883043F47003C2F88830BFF34F8F5C
:10067000BFF36F8F4FF01023D3F80022002A03DB63
:10068000D3F80432002B2FDA204B0122C3F80425C3
:10069000D3F80024002AFBD04FF010221221C2F818
:1006A0000012D3F80024002AFBD04FF010231222AE
:1006B000C3F80422154B1A46D3F800140029FBD0C6
:1006C0000021C3F80415D2F80034002BFBD0BFF38F
:1006D0004F8F0D490E4BCA6802F4E0621343CB60A2
:1006E000BFF34F8F00BFFDE70A4B0B4A1A6008BDEE
:1006F0008C5600404881030000F00040E40E0040AA
:10070000580200104096024000ED00E000E0014079
:100710000400FA050C0000200090D00338B5202218
:10072000044608300D4608F06FF82022A91804F19D
:10073000280008F069F8002038BD00002DE9F743D3
:10074000DFF86C809946184B036004460E4640461D
:100750000121174602F08EFB0546BFF35F8FF8B903
:1007600000F0E6F80A9ACDF800903B4606F1080141
:10077000204606F09FFE044600F0E8F8BFF35F8FC6
:10078000C8F8005044B1094948F2165248F24253A1
:100790008C4214BF14461C46204603B0BDE8F083CB
:1007A00048F20454F8E700BFDD55AABB8408F00006
:1007B000A83D00200E4B984214D00AD8B8B10D497C
:1007C00048F2165248F20153884214BF10461846A8
:1007D0007047094B984208D0084948F2165248F22F
:1007E0000353F1E748F20350704748F20250704754
:1007F0000102F0000002F0000202F0000F02F0001F
:1008000008B5083006F0C0FEBDE80840FFF7D2BFCB
:1008100013681F2B2DE9F34106460F46144620D9D5
:10082000DFF84C800121404602F024FB0546BFF36F
:100830005F8FC8B900F07CF8394606F1080006F071
:1008400015FF019000F082F8BFF35F8F0198C8F8A0
:100850000050FFF7AFFF08B92023236002B0BDE8C6
:10086000F08148F21450F9E748F20450F6E700BF6F
:10087000A83D00202DE9F04105460E46194801210A
:10088000144602F0F7FABFF35F8F38BB00F050F860
:10089000DFF854800835B4F5805F274628BF4FF451
:1008A000805731463A46404607F0AEFF3A46414649
:1008B000284606F083FEE41B3E4468B9002CEAD1CA
:1008C00000F044F8BFF35F8F064B00221A60204609
:1008D000BDE8F041FFF76EBF0446F1E748F204506F
:1008E000BDE8F081A83D0020281A0020024B00201E
:1008F000C3F80005704700BF00A0025038B50A4B8E
:1009000000251D60BFF35F8F084C0123C4F800353C
:1009100006F0DCFEC4F8005520B1052848F203506B
:1009200018BF032038BD00BFA83D002000A0025022
:10093000044B0122C3F80025034B4FF480625A6038
:10094000704700BF00A0025000E100E0044B00220D
:10095000C3F80025034B4FF48062C3F8842070472E
:1009600000A0025000E100E04B1C30B5DB00044663
:1009700012F003009BB20DD1074D2A601A44074BB9
:100980001A60074B1870074B1870074B1C80074BF9
:10099000198030BD0720FCE7302A00202C2A0020D7
:1009A000282A0020382A0020342A0020362A002055
:1009B0002DE9F047274F3B888B4206460D4690466F
:1009C00044D3002001F026FF234B24481978244B00
:1009D00000881C78E2B2844238BF0132C9B234BF09
:1009E000D2B2002291422BD01C781A78D1B2904218
:1009F00086BF0131C9B200211970002001F00CFF3F
:100A00004FF6FF739C4223D0DFF85C90D9F80020AA
:100A10004FEAC40A42F8348002EBC4039EB195B198
:100A2000104B38881B682A4604FB0030314607F01B
:100A3000EBFED9F80030534400209D80BDE8F087DC
:100A40004FF6FF74D9E700209880F7E70920F5E713
:100A50000420F3E7342A0020382A0020362A002018
:100A6000282A00202C2A0020302A0020F8B5114C1A
:100A7000114D264622782B789A4200D1F8BD0F48B6
:100A80000F4A2378126807880E4802EBC3010068FA
:100A900052F83320898803FB070090470A492278DF
:100AA0000988D3B2914286BF0133DBB20023337091
:100AB000E0E700BF382A0020282A0020342A00203E
:100AC000302A00202C2A0020362A0020D0E90223D8
:100AD000D1E90201994208BF90422CBF01200020B9
:100AE0007047000008B50B4801F0C7FF0A4B0B49DF
:100AF000D3E900231218D1E9000143F100038B422E
:100B000008BF824203D212F1807243F10003104603
:100B1000194608BD10000020402A0020B82A0020F5
:100B200037B505460C460A4801A902F02EF960B116
:100B30000570446001A9064802F051F918B1054852
:100B400001F0A0FF002003B030BD0420FBE700BF90
:100B5000A42A00201000002038B5184B1B7804464A
:100B600013B90025284638BD0028FAD0037F03F0CA
:100B7000FF05002BF5D0FFF7B5FFD4E9022399421A
:100B800008BF904214D3236903B92377D4E9053011
:100B9000984721690029E4D0237F03F0FF05002B4B
:100BA000DFD0D4E90223521843F10003C4E9022341
:100BB0000348214602F0E6FAD4E700BF482A0020A5
:100BC000E0910E0013B5114B1149186801900823EC
:100BD0001048582202F0C6F8044698B90E4A0F4849
:100BE00001A901F045FE044660B90C48012101F05D
:100BF00025FF01230A4A0948194601F081FE094BE5
:100C000001221A70204602B010BD00BFDC910E0018
:100C10004C2A0020A42A0020890C0E00100000207D
:100C2000FFFF7F00482A00203AB103685A614A1E3C
:100C3000514251411961002070470720704738B573
:100C4000037F04460D4683B98261FFF74BFF23699A
:100C5000401941F10001C4E9020103B125612146B7
:100C60000020BDE83840FFF75BBF002038BD0023FF
:100C7000014603770120FFF753BF0000014801F050
:100C8000FCBE00BF100000202DE9F04F85B080466B
:100C900001F0DDFE40B15B4AD2E9003113F180730F
:100CA00041F10001C2E900310021404601F0DFFEC0
:100CB00038B1554E336823B13068FFF74DFF00233C
:100CC00033600121404601F0D2FE20B1FFF70AFF58
:100CD0004E4BC3E900014E484B4F4E4EDFF83C915E
:100CE00003A902F08CF8002845D1DFF82891464E80
:100CF000DFF82CA1484602F05BFA3368002876D072
:100D00007BB13368D0E90201D3E90223994208BFDD
:100D100090422DD233681B7F1BB13168484602F0E8
:100D200031FA484602F03EFAD0E902B30746019391
:100D3000FFF7D8FE019BBBEB000463EB0105012C20
:100D400075F1000346DBB4F5350F41D3FFF796FF8D
:100D5000314A02444FF496030021504601F0F4FD5D
:100D600000283FD1336813B9404601F0C1FD376018
:100D700005B0BDE8F08F0378012B1ED0022B09D1FE
:100D80004FF0000A304602F00DFA002835D080F806
:100D90001CA0F7E743B943681A7F2AB901221A77E2
:100DA0004168304602F0EEF903A9194802F052F802
:100DB00003A9174802F023F895E741683B68994278
:100DC00002D100233B60EFE7304602F0F4F9EBE795
:100DD000BA68BFE70021504601F03EFE3846FFF7F3
:100DE000BBFE01E00D28F9D00023336082E7002B21
:100DF000BED1404601F080FDBAE7012389F80030FA
:100E0000D2E700BF402A0020C02A0020B82A0020D4
:100E1000A42A0020E0910E00FFFFB400482A002021
:100E20001000002043681B6818470000024B5B68F5
:100E300003B11847704700BFC42A0020020600F023
:100E40000F034CBF02480348DB001844704700BF43
:100E5000D02A0020182B002008B5FFF7EFFF016013
:100E600009B14B681968416008BD0000024B01469A
:100E7000D3E90002104700BF182B00200378052B90
:100E80000CD1084AD2F88434D2F8802412F0FF0F33
:100E900004D1054ADBB2052B08BF1046034B1B6883
:100EA000184700BF0070024004920E00C42A0020C0
:100EB000012805D0022805D030B90448FFF7DEBF6D
:100EC0000348FBE70348F9E7704700BFF8910E00BD
:100ED000FC910E0000920E00FFF7D0BF0148FFF713
:100EE000CDBF00BF08920E0038B5831EDBB2062BC3
:100EF00098BF1A4A1A4D98BFD25C2B78A3F102030F
:100F0000DBB288BF0022062B9ABF1449CB5C0023BA
:100F10009342044603D0B2B1124802F0FFF9022C0A
:100F200014D0A4F10800424242412B78022B0FD08A
:100F3000A3F108014B424B41934202D052B103F05E
:100F400001F92C7038BD02F013FAE8E70122ECE752
:100F50000123F1E703F0ECF8F3E700BFEC910E009A
:100F6000692B0020180000202DE9F04F87B00026E3
:100F70000546884691461F4602966B6800225C68CB
:100F80002946012302A8A047044638B98DF8060077
:100F900004908246564503D8052028E00136ECE748
:100FA0006B680DF10602D3F804B02946012304A8AA
:100FB000D8476B680DF10702D3F804B02946012326
:100FC00004A8D8479DF8073043459DF8063013D153
:100FD0004C450FD1109A13603B7087F801806A6806
:100FE000023B54682946BA1C04A8A047002007B059
:100FF000BDE8F08F0134E4B26A68023BD2F804B075
:101000002946002204A8D8479DF806309A44C1E733
:101010002DE9F74305462B4803F0AAF804460028BB
:101020004CD1294B1870294B1860294B0146186088
:101030004822284807F010FC27484822214607F09C
:101040000BFC264B95B9264A1D72C3E900250020EA
:1010500002F0A2F918B1852801D003F0B1FE214FAA
:10106000002697F8089007F1090814E095E80700B2
:1010700083E807000028EAD1194A1A60E7E7A27856
:1010800023443946985CFFF7E7FE01356278EBB2FE
:101090009A42F4D80136F4B2A14504D904EB4404D1
:1010A00044440025F2E70B230E488DF8043001A9D3
:1010B000FFF7B8FE044608B102F012FF204603B065
:1010C000BDE8F083D90E0E00692B0020602B0020B4
:1010D000642B0020D02A0020182B0020C42A0020D6
:1010E00011140E0024920E0010B502F0DDFF10B9AD
:1010F0000823184610BD02F0DFFF04460028F7D190
:10110000044802F064F903460028F2D003F058FEC8
:101110002346EEE7F4910E0002F0ECBE03F0C8BBEC
:101120004FF08043D3F83824920702D50348FFF7E5
:10113000A5BED3F83824D107F4D4704709920E0025
:1011400007B5822301A88DF80430FFF797FE03B09E
:101150005DF804FB2DE9F74300F1090190F80890D0
:10116000054600260F46F3B24B452AD291F801807E
:101170000024E3B298450AD98B780A190134D05C6F
:10118000FFF75CFE0368002BF3D0112028E0013646
:101190000331E8E7A37823442946985CFFF75CFE17
:1011A00001366378F2B29342F4D808F101082B7A41
:1011B0005FFA88F4A34216D904EB44043C440026A9
:1011C000EFE74FF00008F2E713681A68002AFBD136
:1011D0001D6001A90B2328468DF80430FFF722FE7D
:1011E00003B0BDE8F083014BEFE700BF602B0020A8
:1011F000024B1878003818BF01207047682B002078
:10120000030710B5044604D403F0E2F8204603F0C7
:1012100015FC2046BDE8104003F0BCBB03F088BBC2
:10122000014B1868704700BF602B0020F0B50A4BD7
:101230000246186878B1057A0023861DDCB2A54203
:1012400001D80368F5E7013303EB4307F75D9742E5
:10125000F4D101B10C70F0BD602B00201146FFF7F6
:10126000E1BD08B500F00F03082B07D8FFF7E6FD36
:10127000006818B1BDE80840FFF7D4BD102008BDD4
:1012800038B5054B05461C6804B938BD29462046CB
:10129000FFF7C8FD2368F6E7602B002038B5074B41
:1012A00005461C680CB9062038BD29462046FFF7C4
:1012B000B9FD0628F8D12368F3E700BF602B0020B2
:1012C00013B50446019102F099FF50B1064B1B780B
:1012D000022B06D10199204602B0BDE8104002F071
:1012E0009DBF082002B010BD692B002013B5044635
:1012F000019102F083FF50B1064B1B78022B06D1FF
:101300000199204602B0BDE8104002F0FBBF082062
:1013100002B010BD692B0020F8B543689B680546F4
:101320000C46164613B92EB1072002E0984706284E
:10133000F9D0F8BD2B7AA34213D9093504EB440444
:101340002C446778F3B29F4201D80020F1E762781D
:101350009A4208D9A219A378D05CFFF751FF013651
:10136000F0E77378FFDE00231B78FBE770B5436876
:10137000DB6805460C4603B198472B7AA34213D984
:10138000093504EB44042C4400256678EBB29E42F8
:1013900000D870BD62789A4209D96219A378D05CEE
:1013A00003F0C6FA0135F1E700235B78FFDE002386
:1013B0001B78FBE743681B6903B118471846704761
:1013C00070B5084B1C6804B970BD267A0025E9B2D7
:1013D0008E4201D82368F5E700222046FFF79CFFE4
:1013E0000135F4E7602B002070B5084B1C6804B988
:1013F00070BD267A0025E9B28E4201D82368F5E750
:101400002046FFF7B3FF0135F5E700BF602B002052
:1014100038B503780F2B044610D9A3F1800283F06E
:101420008003052B00D938BD052AFCD8DFE812F06F
:1014300067002C00490073007E00E0000F2BF2D8FB
:1014400001A252F823F000BF4F150E007F150E00C9
:10145000DF150E00A3150E00C1150E00F1150E00CC
:1014600003160E0027140E002D160E0031160E0066
:1014700035160E0027140E0027140E0027140E0038
:1014800027140E00FB150E006B48FFF7EFFC6A48AF
:10149000FFF7F6FE0D20FFF7C9FCFFF7A5FF00F0F0
:1014A000C8FE664B1B6853B9654B187A00F0010003
:1014B00002F0D0FD0120BDE83840FFF715BD012046
:1014C000F4E7FFF791FF03F0D5F90020FFF70CFDDB
:1014D0005C48FFF7D5FE5B48FFF7C8FC0E20FFF71E
:1014E000A5FC594B1B78023BDBB2062B9BD8574A15
:1014F000D35C002B97D0BDE8384001F039BF524B88
:101500001B78062B05D003F0FD03052B8BD10220A1
:10151000D1E70820CFE74C4B1B78032B83D103F096
:10152000E1F900283FF47FAF0420C4E7464B1B7865
:10153000032B05D103F0D6F910B10420FFF7D4FC3A
:1015400002F0C4FD00283FF46EAF0620B3E73E4B27
:101550001B78032B01D0082B02D13D48FFF758FF21
:101560000020FFF763FC354B1D68002D3FF45BAF97
:1015700028462146FFF756FC2B685D68F5E7FFF724
:1015800033FF00F04DFE0220FFF7AEFC0120FFF715
:101590004DFC2046FFF76AFC2046BDE83840FFF7C7
:1015A0006FBE294B1B78082B06D10220FFF79CFC4D
:1015B00002F0D2FD0320EAE70520FFF795FCF9E7EA
:1015C0000320FFF733FC2348FFF750FC2148FFF7C7
:1015D00057FE1D4B1B78062B99D107206BE7032084
:1015E000FFF782FC0220FFF721FC2046FFF748FEB0
:1015F0002046BDE83840FFF739BC0F20FFF716FC46
:10160000CAE78078FFF71AFC2146436800689847CC
:1016100000283FF408AFA07802073FF404AF0307A7
:101620003FF501AFBDE8384002F0ACBE0820E5E769
:101630000920E3E70A20E1E70A920E00642B00206C
:10164000C42A00200B920E00692B0020EC910E00A2
:101650000C920E000D920E00C36903B1184770473B
:1016600003680022C3E91E22C3E920221A845A62B9
:10167000DA6203F134025A6770470000F0B504687B
:101680000D7A002C00F08780A4F212347C2C00F23A
:1016900022837C2C00F21F83DFE814F085008F008A
:1016A0009D00A900B500C100CD00D9001D031D0398
:1016B0001D031D031D031D03EF00FB001D031D0380
:1016C0001D031D031801240132011D031D031D0309
:1016D000450151017F011D031D031D031D0367010A
:1016E00073017F011D031D031D031D031D031D0346
:1016F0008B011D031D031D031D039F01AB01B701DA
:10170000C301CF011D031D03DB01E701F301FF014D
:101710000B021D031D0317022302340240021D03A6
:101720001D034C025802640270027C021D031D035B
:101730001D031D031D031D031D031D031D031D03A9
:101740001D031D031D031D031D031D031D031D0399
:101750001D039B02A7021D031D031D03C0021D03E1
:101760001D031D031D03DD021D031D031D031D03BA
:10177000DD021D031D031D031D031D031D03E902DF
:10178000F5021D031D031D031D0313031D031D038C
:101790001D031D0313030824047123B940F21233FF
:1017A00003600120F0BD0AB1047914700B24012BF1
:1017B00004710ED840F21333F2E700240AB106791F
:1017C000165501340E7D06719C4205D34FF44573C6
:1017D000E6E70124F2E700240AB106791655013440
:1017E00002269C42067103D340F21533D8E7002449
:1017F0000AB106791655013402269C42067103D3BC
:1018000040F21633CCE700240AB1067916550134AC
:1018100002269C42067103D340F21733C0E700242E
:101820000AB10679165501344E7E06719C4203D3E7
:101830004FF44673B4E700240AB106791655013413
:1018400000269C42067103D340F21933A8E7002416
:101850000AB106791655A94E002701343770A74EF4
:101860003678AE4202D340F2993399E70926A34273
:10187000067103D84FF4487392E700240AB1067941
:101880001655013404269C42067103D340F22133DD
:1018900086E700240AB106791655984E0F7A3678F5
:1018A000DFF85CC2B74204F1010440F2188201F192
:1018B000090706EB460607EB060E9C42BE5DCCF818
:1018C00000E0067103D340F2263369E700240AB131
:1018D00006791655013400269C42067103D340F266
:1018E00027335DE700240AB106791655844E366821
:1018F0000134767806719C4203D34FF44A734FE764
:1019000000240AB1067916557D4E0F7D366836786B
:10191000B74204F101041ED102269C42067103D392
:101920004FF44B733CE700240AB106791655013495
:1019300002269C42067103D340F22D3330E7002487
:101940000AB10679165501344E7E06719C4225D3A4
:1019500040F22E3324E78F7DB74223D10A269C42E2
:10196000067103D340F233331AE700240AB1067933
:101970001655013400269C42067103D34FF44D7373
:101980000EE700240AB106791655013400269C4260
:10199000067103D340F2353302E700240AB1067919
:1019A000165501340026A342067103D84FF44F7335
:1019B000F6E600240AB106791655514E0F7D3668B9
:1019C0003678B74204F1010440F0E98005269C42D4
:1019D000067103D340F24133E2E600240AB10679EE
:1019E0001655013424269C42067103D340F242333B
:1019F000D6E600240AB106791655013400269C4229
:101A0000067103D340F24333CAE600240AB10679D3
:101A10001655013410269C42067103D34FF45173BE
:101A2000BEE600240AB106791655013401269C420F
:101A3000067103D340F24533B2E600240AB10679B9
:101A40001655013405269C42067103D34FF4527398
:101A5000A6E600240AB106791655013424269C42D4
:101A6000067103D340F249339AE600240AB106799D
:101A70001655013401269C42067103D340F24A33C5
:101A80008EE600240AB106791655013403269C42DD
:101A9000067103D340F24B3382E600240AB1067983
:101AA000165501348E7D06719C4203D34FF4537357
:101AB00076E600240AB106791655013404269C42C4
:101AC000067103D340F24F336AE600240AB1067967
:101AD0001655013424269C42067103D34FF45473E7
:101AE0005EE600240AB106791655013402269C42AE
:101AF000067108D340F2513352E600BF6B2B002031
:101B0000702B002000240AB10679165501340226F4
:101B10009C42067103D340F2523341E600240AB1DD
:101B200006791655013405269C42067103D340F20E
:101B3000553335E600240AB10679165501342426BA
:101B40009C42067103D340F2563329E600240AB1C1
:101B500006791655013406269C42067103D340F2DD
:101B600057331DE600240AB10679165501340E7D5F
:101B700006719C4203D34FF4567311E600240AB158
:101B80000679165501348E7D06719C4203D340F2CE
:101B9000593305E600240AB1067916550134534E2F
:101BA00036687778524E3770524E00273770514E54
:101BB00037784F4E3678B74204D34F4F3E780136D0
:101BC0003E704CE60726A342067103D840F26D33FF
:101BD000E6E500240AB106791655013405269C4233
:101BE000067103D340F26E33DAE500240AB10679B8
:101BF00016553E4E3F4F36683F7896F801C0BC45BB
:101C000004F1010470D996F802C03E449C4216F8D3
:101C10000C60067103D340F27233C1E500240AB1AF
:101C200006791655314E0F7D36683678B74204F185
:101C3000010406D103269C4206710DD340F277338E
:101C4000AEE58F7DB7420BD102269C42067103D3CD
:101C50004FF45F73A4E500240AB1067916550134E8
:101C60004026A342067103D840F2833398E500244E
:101C70000AB106791655013400269C42067103D339
:101C80004FF461738CE500240AB106791655174E9E
:101C90000F7D36683678B74204F1010407D10E6A29
:101CA0009C42367806710DD340F2893378E58F7DFA
:101CB000B7420BD100269C42067103D340F28E330B
:101CC0006EE500240AB1067916550134094F3E78B5
:101CD00001363E706BE700230360184662E500237F
:101CE000CCF800301B78FFDE0023FBE7702B0020D0
:101CF0006A2B00206C2B00206B2B002010B50446B3
:101D000058B90868037B202B09D100F10E01072286
:101D1000183006F079FD204610BD0320FCE70620B0
:101D2000FAE74360CA699A420DD38A690260C869BA
:101D30001A448A610A6FC01A1A44C86100380A67D7
:101D400018BF0120704701F1280202608B67002054
:101D50007047037A012B08D9427B012A00F10C035A
:101D600006D9827B13445878704700235B78FFDEE6
:101D700000231B78FBE700002DE9F0470B7888B0C3
:101D800005460E460E2B17D8DFE803F00A080A0AAC
:101D9000160C9F161608160A0A0A0A00FFF760FCBE
:101DA000002427E04A78D1094FEA521330D013F0CB
:101DB000030303D0012B21D006241BE002F01F02F5
:101DC000012AF9D1B478062CF6D105A8039300F0C6
:101DD000ABFC03AB0093F278317903460746284603
:101DE000FFF7C2F8052805D0039A3946701C00F0A9
:101DF0003BFA0446204608B0BDE8F087B378212BB3
:101E0000DAD1B6F80720072AD6D101681831EDE7F4
:101E1000012BD1D1B3780768202B35D0222BCBD121
:101E2000B6F80730002BC7D197F82020B6F803305A
:101E30003B8402F0010203F001018A42B0D08CB26F
:101E4000C1F10301C9B2FFF707FC002CA8D12B7A1E
:101E5000012B40F2D0806B7B05F10C02002B00F0CF
:101E6000CC80AB7BD05C02F0E5FB2846FFF771FF2E
:101E700002F0E0FB07F13403C7E91E44C7E9204440
:101E80007C62FC627B67B5E7B6F80720072A93D12E
:101E90003B73B6F80730DBB27B7300200E37CDE919
:101EA0000573079000F0B6FC05A90020FFF708FABB
:101EB000044630B9534B03A9CDE9033500F0C2F90C
:101EC0000446002000F0A8FC94E7037A002B00F001
:101ED0009680837A00F10901002B00F08E80C27A8F
:101EE000B3788A5C9A423FF45BAF1B06F77809D55A
:101EF00027B1032F14BF032400247BE70121FFF740
:101F0000ABFB4DE707F0FD03012B3FF449AF002F7A
:101F10006FD10668FFF71DFF3B4B059306F10C03DD
:101F20000693B46A8146C4B9F36FB467C6E91F4328
:101F3000F36A63B1D6E90B0106F1240383E80300D9
:101F4000F46205A94846FFF7D1F9044600E074623F
:101F500000212846FFF780FB4CE7D6F884A0706A82
:101F6000544528BF544606F134082246414606F03F
:101F70004BFCF36F2344C6E91F73AAEB0403B3675A
:101F8000F36A444474672BB306F1240406F12C0869
:101F900098E8030084E80300B36F706AF7621BB926
:101FA000736A002BCDD116E0B26A716F9A4214D8D1
:101FB00006F02AFCB36AB26FC6F88030D21AB26754
:101FC000726F1A44726700212846FFF745FBF36AD7
:101FD000002BDDD173620024BAE71A4606F014FC28
:101FE000B26FB36AF2679B1AB362736A1344736287
:101FF000D6E70324FEE66378FFDE1B78FCE75B7818
:10200000FAE700BFFD1C0E00231D0E001FB503687C
:102010001B8CDC0714D5037A012B13D9437B00F109
:102020000C0493B1837BE05C9306CDE901120CBFF5
:102030000123002301A90393FFF742F904B010BD67
:102040000820FBE700235B78FFDE1B78FCE700003D
:102050002DE9F3410468238CDB0780460F461646C2
:1020600046D5002000F0D6FB656A002D38D1A16F5F
:10207000B14213D3616F3246384606F0C5FBA36FF9
:10208000C4F880609B1BA367636F334463670020C1
:1020900000F0C2FB284602B0BDE8F081C4E9097631
:1020A0004046FFF756FE134B009304F10C0306461F
:1020B000019369B10A463846616F06F0A5FBA36F2C
:1020C000A26AD21AA262626AC4E91E531A44626208
:1020D00069463046FFF70AF9051E08BF9225D6E784
:1020E000E36A1BB9C4E90B769225D0E71125CEE748
:1020F0000825CFE7231D0E00002070472DE9F04F83
:102100002DED028B85B04B68019280460C466BB971
:102110000B681B681B684BB98D683DB9C0E9005559
:10212000284605B0BDEC028BBDE8F08F02F026F921
:10213000019BE7689F4228BF1F4604F110034FF040
:10214000000A08EE103A8146564601254FB3A368AF
:102150006168BB429B4628BFBB4629B35A4609EB80
:10216000060006F051FB00236360A268E368A2EB5F
:102170000B02A3EB0B03A260E360A7EB0B075E442B
:102180000ABBBAF1000F03D02268126812682260FD
:10219000DBB12368DBB963601EB1019BB34288BF2A
:1021A0000025C8E90096BBE7002BDED021684B680C
:1021B00018EE100AD3F804A009EB06025B46D047DC
:1021C0004FF0010AD1E7002BC0D10025BEE7002364
:1021D000029321684B680022D3F804B002A80123BF
:1021E000D84708B92061B1E7A3680133A360F0E7DD
:1021F000084B1A7882420CD0052818BF064A18707E
:1022000018BF137805481CBF23F002031370FFF7B3
:10221000FFB87047802B00209C2B002034920E00CA
:1022200008B50020FEF7ECFFBDE808408020FEF76F
:10223000E7BF08B50020FEF7F1FFBDE808408020A9
:10224000FEF7ECBF38B505460C4602F03BF9A84254
:1022500003BFD4E90001034BC3E90001102008BF0C
:10226000002038BDA02B00207FB5C38893421E46B6
:1022700028BF164693420D46144620D9802001F00F
:10228000B7FFB4FBF0F202FB1040B0FA80F0400957
:1022900003900020CDE9015600F0BCFA01A980208E
:1022A000FFF70EF8044620B906498020FFF7CAFF61
:1022B0000446002000F0B0FA204604B070BD0020B3
:1022C000E6E700BF68920E002DE9F04F0B780E2B69
:1022D00089B00D4613D8A3B1013B0D2B11D8DFE80F
:1022E00013F012001A00160010002A00F501100069
:1022F0001000100010001A00DF01E301F301852B2C
:1023000013D00624DCE10320FFF772FFF9E7B148A0
:1023100000F0E2FD08B90024D2E1AF4B01221A60BF
:10232000BFF36F8FBFF34F8FF5E7AC4B1B78032BD9
:10233000E7D10420E8E70523A94D8DF814300DF10D
:10234000150002F055F800232B609DF8153003F0BE
:102350001F07032F00F25D81DFE817F00400F6008D
:1023600052013E0013F0600FC3F3411834D1DB0972
:102370009DF8161000F0A280062916D0082900F05A
:102380008F8049BB974C0222204606F065FA2378DD
:1023900043F001022270944A1278920744BF43F03E
:1023A0000303237002228F490EE09DF81830022BA0
:1023B00016D0032B64D0012B0ED1BDF81B30002B9F
:1023C00000F06B81894912220DF11500FFF74CFFD7
:1023D0000446062C40F0258105A8FEF75FFFF7E0D4
:1023E000BDF81B60002E00F05881092E28BF092679
:1023F000FEF716FF4FF00909044654BB794C7C499F
:102400003246204606F000FA2771A4F80290FEF743
:10241000EFFE18B1E37943F02003E371FEF700FF0C
:10242000744BC3E900049E60BDF81B20DA600020F5
:1024300000F0F0F970498020FEF758FF044620B9FB
:102440006E498020FFF7FEFE0446002000F0E4F90C
:10245000BFE7CDF80C804FF0000A63680022D3F884
:1024600004B02146012303A8D84730B9237A1F447A
:102470002368D1441C68FFB2BFE70AF1010AECE708
:10248000BDF81B30002B00F00881BDF819109DF835
:10249000170000F099F9014600289DD0027893E7D3
:1024A0004E4A1278052A03D14E4A137001227AE768
:1024B000042A91D14B4B83F80080F7E703290FD012
:1024C00009292BD0012987D1BDF81730012B83D1E1
:1024D000FEF78EFE60B1444A137823F002030FE04A
:1024E000BDF81730012B7FF477AFFEF781FE18B9E6
:1024F0000F2401F0E4FFE3E03B4A137843F00203CA
:1025000013702B68002B00F0C88001F0DBFF04463D
:1025100000287FF400AF01F091FFD1E02F4B1B7832
:10252000043B012B01D90824E3E79DF817302BB9B0
:10253000FEF75AFF0420FFF75BFEE2E7012B40D1D4
:10254000FEF73EFF0520F6E79DF8190003A9FEF708
:102550006DFE064608B91024CBE79DF80C1005AABD
:10256000FEF77CFE062804465BD19DF8152012F08C
:10257000600FBED1194B9DF80C1018789DF81630DD
:10258000D20916D07BB10A2BB3D10528CBD1304666
:102590000192FEF70FFF1349019A08700DF1150023
:1025A000FFF762FE14E00528BDD10E490B80022220
:1025B000F4E70B2B9DD10528B5D1BDF81730FF2BC3
:1025C00001D9072495E79DF817203046FEF7A4FEB1
:1025D000044626E0A82B00205C700240802B0020DF
:1025E000A02B0020AC2B00209C2B002054920E002E
:1025F00035920E00842B002070920E0068920E001F
:102600009DF81900070706D19DF8153013F0600FEB
:102610000BD006246DE705A9FEF723FE0628044625
:10262000F2D0002C3FF46DAF63E79DF81620394BD4
:102630009DF819401B78012A1DD0032A0CD0002ACE
:10264000E7D1052B02D026077FF46DAF204601F0BD
:10265000A5FE31490880AAE72007DAD4BDF8172083
:10266000002AD6D1052B02D021077FF45CAF20468B
:1026700001F088FE45E72207CBD4BDF81720002AD9
:10268000C7D1052B02D023077FF44DAF204601F0C0
:102690009FFE204602F0D2F933E701F00DFF3AE643
:1026A0000020FFF7A5FD36E64FF08043D3F838440D
:1026B00014F0010401D00220F3E70120FFF798FD98
:1026C000204609B0BDE8F08F0120EAE7C87803286A
:1026D0003FF417AE114E3368D3B1002271683260F7
:1026E0009847044600287FF404AF336823B1AB78E1
:1026F000002B7FF410AE0EE7094B1B68082B04D1AA
:10270000084B1B68002B3FF406AE01F0D5FED7E75F
:102710000E24EEE6802B0020AC2B0020A02B002006
:10272000300100103401001008B14023036001485B
:10273000704700BFAC2B002070B54FF0805286B0C0
:10274000D2F8A830D2F8A42000926FEA83436FEA4F
:1027500093430B4A0B4E9BB20D2102A806F084F85E
:1027600002AD002402A806F0B3F8844201D306B0FB
:1027700070BD15F8013B06F8013B0134F2E700BFDC
:1027800078920E00AC3D002010B50E4B53F820405F
:1027900023780BB9A01C10BD0020FFF7C5FF013C3A
:1027A00000235A1CA15C39B9DBB201335B00DBB2F8
:1027B00043F440730380EEE7D3B220F813101346BE
:1027C000EFE700BFD0920E0008B9FFF7DDBF052884
:1027D00007D8054A105C20B1044B53F82030002B79
:1027E000F3D10020704700BFE8920E00D0920E0097
:1027F00072B6024A1368013313607047EC2B002055
:10280000034A1368013B136003B962B6704700BF07
:10281000EC2B0020FFF7ECBFFFF7F2BF30B53AB169
:102820001368DB430A4D0144814204D1D84330BDD3
:102830004FF0FF33F6E710F8012B5340082213F056
:10284000010418BF2C46013A84EA5303F7D1EBE7A1
:102850002083B8ED435882B03BB100234350435826
:102860000193019B012002B070471846FBE700006E
:1028700030B51B4C437944F823201A4C04EBC303B6
:102880001B7953BB03680A88C3F8082590F9043004
:102890008A78002B4FEA4212AFBF03F1604312491E
:1028A00003F00F03D2B2A9BF03F56143CA54D2B2F9
:1028B00083F8002390F904300C495D09012203F0EC
:1028C0001F0302FA03F341F82530437904EBC301F7
:1028D00044F833000A71002030BD0820FCE700BF37
:1028E000F82B0020F02B002014ED00E000E100E0C8
:1028F000036801221A607047036801225A6070471A
:10290000F7B504684FF480358D40C4F80853046867
:10291000C4F8485301F15004A4000668A4B200278B
:10292000375134590194019C046801F5A87122F0D3
:102930007F4244F821200268C2F8445313B103686F
:10294000C3F8045303B0F0BD2DE9F34799464FF4A3
:102950008038036808FA01F8C3F848830368C3F8AD
:10296000088322F07F4502680E46D2F8041502EB78
:10297000860206F15007D2F84035C2F84015BF0074
:102980000268BFB24FF0000A42F807A05B1AD259A2
:10299000009223F07F43012B009A04460BD1264B73
:1029A0004FF4806043F001039847236843F807A081
:1029B000DB590193019B2368D3F80475C3F8448362
:1029C000EB1B23F07F43012B06F5A876236819D172
:1029D000013543F82650184B4FF4806043F0010353
:1029E00098472368D3F804359F4209D12368C3F878
:1029F000448323680020C3F8048302B0BDE8F08755
:102A00000D20FAE743F826502068D0F804156A1A1A
:102A1000013AC9F1FF1322F07F4203F57F4393424D
:102A2000EED3002AE2D1013540F826502368D3F8CE
:102A300004359942D9E700BFF0920E0002680223E4
:102A4000C2F8443311B10268C2F804337047006819
:102A50004FF48271FFF7FEBE4FF4803303FA01F1A9
:102A60000368C3F848130368C3F80813704750316C
:102A70008900006889B2FFF7EDBE0368D3F804054A
:102A80007047000090F9043001215A0903F01F0338
:102A900001FA03F34032024941F82230704700BF87
:102AA00000E100E0024B034A1B681068184700BFB2
:102AB000F82B0020F02B002038B51849184B0A6875
:102AC000002A084625DC5C789A88D97BB4B15C7B07
:102AD000651A95420FDC00225A705A699C8002B137
:102AE0000532026019790F4800F035F9A0B1BDE850
:102AF000384002F065B90A449A80F3E79C7B651878
:102B0000954204DB01225A709C801A69E7E7521A49
:102B1000F2E7FF3A0A60E5E738BD00BF702C0020FD
:102B2000FC2B00202C2C002038B543780546002BC8
:102B30003DD082789A423AD2C378002B37D0C3680E
:102B4000002B34D01B4C54220021204605F084FE7B
:102B50001422294604F10C0005F056FEEA78AB7801
:102B60001344A3804FF480732380EB68A360237B1E
:102B700084F82030EB68A3622B696362FF2384F83A
:102B800021300D4A0D4BE36204F1200104F13000C5
:102B900000F08AF860B90123A370A978EB78194492
:102BA00004F13000C9B2BDE8384000F0D4B80720C5
:102BB00038BD00BFFC2B0020B92A0E00F8920E0091
:102BC0000146014800F0A4B82C2C0020014800F078
:102BD000B3B800BF2C2C0020014B1861704700BF18
:102BE000FC2B0020014B5861704700BFFC2B0020DC
:102BF0000178036AC26821B1C3F80C250023437031
:102C00007047C3F80825F9E710B5037D0446002B8B
:102C10003FD183697BB9E278A378934213D12178BD
:102C2000236AE26861B1C3F8082501236370A378C1
:102C3000053323611BE098472379022BEBD010BDAD
:102C4000C3F80C25F1E71AB92046FFF7D1FFEEE7EC
:102C50002078236AE168C8B1C3F80815A37813FB8C
:102C600002F31B1201210533617023612175237961
:102C7000022BE4D1E369216918682246FDF7DFFFE2
:102C80000028DCD0BDE8104002F09AB8C3F80C155B
:102C9000E4E7FFF7ADFF0023C278037583789A1A43
:102CA00053431B12C4E7000070B582610B788D6836
:102CB00003708B68144AC0E902334B6803624B7897
:102CC00083700446C868E0610021FDF7ADFF40B99C
:102CD0000E4E032135B92046FFF78AFF01232371E9
:102CE000284670BDEB070BD51F288BBF00F01F03D4
:102CF000034632464FF0A04203F5E07342F823103A
:102D000001306D08E6E700BF092C0E0000030050FB
:102D1000022370B50371C16004460D46FFF768FFDA
:102D20008168866929430025816005758561FFF703
:102D30006BFFA661284670BD38B5C36904461868A4
:102D4000FDF795FF05462046FFF752FF0DB9012319
:102D50002371284638BD83788B4226BFC17000207E
:102D60000720704710B561B1B2FBF3F403FB1424E4
:102D7000A4B244B9C0E9001484608281C3812046B2
:102D800010BD0E20FCE70920FAE737B550E8013FF7
:102D90009DB2C48925448489A54228BF2D1B04897E
:102DA000A54202BFBFF32F8F002207E0C5EA03054B
:102DB00040E80154002CE9D14FF001028DF80320C6
:102DC0000193019B9DF803200B6002F0FF0322B1E9
:102DD0000B880068184403B030BD1846FBE70A882A
:102DE0004B889A4209D150E8012FC2EA024240E8DA
:102DF0000123002BF7D1012070470020704737B521
:102E000050E8023F1FFAA3F5C488A54202BFBFF3F2
:102E10002F8F00220DE0C48925448489A54228BF54
:102E20002D1BC3EA054540E80254002CE8D14FF0C1
:102E300001028DF803200193019B9DF803200B6094
:102E400002F0FF0322B14B880068184403B030BD84
:102E50001846FBE70A884B889A4209D150E8022FAE
:102E6000C2EA224240E80223002BF7D1012070473A
:102E70000020704710B5034653E8000F0A4643E8A8
:102E8000002494F0000FF7D110BD10B5034653E8AD
:102E9000000F40EA010243E8002494F0000FF6D14D
:102EA00010BD10B5034653E8000F00EA010243E8E5
:102EB000002494F0000FF6D110BD10B5034653E87E
:102EC000002F02EA010043E8000494F0000FF6D15D
:102ED00010BD0121FFF7D9BF0021FFF7E2BF00219C
:102EE000FFF7EBBF10B590B1D0E9012301689B1A41
:102EF000DBB20A60013BDBB2FF2B026802D100208B
:102F0000107110BD11684C1C14600B70F2E70E209C
:102F1000F7E738B504460020FFF77CFC22686168BB
:102F200013688B4215D9591E116013F8015C228A6F
:102F3000E36802FB05352268A36811685B1A117902
:102F4000DBB2994200D213710020FFF765FC2846DE
:102F500038BD0025F8E738B5054600200C46FFF7D8
:102F600059FC2A681368591C1160E968641A298A97
:102F7000B4FBF1F41C70BDE838400020FFF74CBCF6
:102F80000B4610B4114628B123B103601B685DF8ED
:102F9000044B18470E205DF8044B70472DE9F041B3
:102FA00008B302B3D0F800E0BEF1000F1ED0FBB1B1
:102FB0004568D5F80480B3FBF8F508FB1535BDB9B5
:102FC00042EA010C1CF0030F14D1C568A94211D3C9
:102FD0004D1EEC180569AC420CD8DEF80C40A44636
:102FE000BDE8F04160470E20BDE8F0810820FBE716
:102FF0000920F9E71020F7E7F0B5D8B1D0F800C004
:10300000BCF1000F18D0CAB14768D7F800E00EF144
:10301000FF370F4214D1C768B94211D304694D1E5E
:103020000EFB0255A5420BD8DCF81040A446BDE8C3
:10303000F04060470E20F0BD0820FCE70920FAE7C9
:103040001020F8E770B550B90E4D0F4C0026641BE8
:103050001423B4FBF3F4B44208D1002010E0036859
:10306000002BF1D0BDE87040DB6918472B6813B91D
:1030700001361435EFE7DB69284698470028F7D07A
:1030800070BD00BFBC000020D0000020014B436099
:1030900000207047FC920E000846704700207047E1
:1030A000024B1868003818BF01207047742C0020AC
:1030B00008B50248FFF713FF002008BD742C00205C
:1030C00008B510461A4605F09FFB002008BD000019
:1030D0002DE9F043814687B014480E4615469846C0
:1030E000FFF7F7FE0446F0B90746BD4215D10F4879
:1030F000FFF7F5FED9F808305BB102228DF8002009
:103100000022CDE90126CDE90325CDF814806846DB
:103110009847204607B0BDE8F08306EB073000F083
:103120006BF90137E1E71124F3E700BF742C0020AD
:103130002DE9F041804686B011480F4616461D46DF
:10314000FFF7C7FE0446C8B9AA083146384600F062
:1031500081F90B48FFF7C3FED8F8083053B10122BC
:103160008DF800200C9A0592CDE90147CDE9036561
:1031700068469847204606B0BDE8F0811124F9E77B
:10318000742C002070B5446806460D46206818B1BE
:10319000B3682946984718B923682B60256070BD2D
:1031A0002468F3E74368186808B102681A6070473A
:1031B0004368186870474368186800B970478842C8
:1031C00003D102681A600120704703460068F4E7E3
:1031D000F0B578B371B36BB300241C600A44DB27ED
:1031E0004FF0DC0C4FF0DD0E1C688A4204F1010543
:1031F00000EB040604D11D60C02333700020F0BD35
:103200000E78C02E05D0DB2E0CD01D600D78055534
:1032100006E01D6007551C68651C1D6000F804C0B1
:103220000131E1E71D6006551C68651C1D6000F852
:1032300004E0F5E70E20E2E710B580B3D0E9022301
:103240009A422ED00378012B0FD0022B21D053B9F4
:10325000C02928D0DB2902D10123037003E0436891
:10326000541C84609954112006E0DC2905D0DD2926
:103270000AD0022303700B2010BD511C43688160EB
:10328000C02199540023E8E7511C81604368DB2189
:10329000F7E7C029E7D1002303708360E3E70E203E
:1032A000EAE70420E8E71846E6E7000038B5074CEF
:1032B000051E04F1080318BF1C4623682BB11A68C9
:1032C00022605B6828469847F7E738BD802C0020CD
:1032D00020B9054B01225A70FFF7E8BF012802D13F
:1032E000014A9070F8E77047782C002038B5094CF7
:1032F00023786BB908486360A3602361E36000F042
:10330000D5F8054600F0DEF801232370284638BDC5
:103310008525FBE7782C0020D1320E0038B5134C00
:103320006378054603F0FF0073B115B16B680020A8
:1033300098470020FFF76EFA63680133636000204E
:10334000BDE83840FFF768BAFFF764FA25B1A26814
:1033500013463BB92A60A5606368002BECD100F0EE
:10336000C7F8E9E79D42F7D01B68F2E7782C002008
:1033700038B5084C0020FFF74DFA6368013B6360E5
:10338000656815B900F0C6F86570BDE838400020E2
:10339000FFF742BA782C002010B5074C23784BB9C0
:1033A000064B002808BF184600F00AF908B90123A7
:1033B000237010BD8520FCE78C2C002028930E0084
:1033C00008B500F02CF9BDE8084000F02FB907B5AA
:1033D0000190FFF7F5FF019800F014F900F018F9DB
:1033E000002003B05DF804FB024AD2F80034002B41
:1033F000FBD0704700E001400A4908B50223C1F83C
:103400000435BFF36F8FBFF34F8FC1F80805FFF787
:10341000EBFF0023C1F80435BFF36F8FBFF34F8F6D
:1034200008BD00BF00E0014010B5094C0123C4F8FD
:103430000435BFF36F8FBFF34F8F0160FFF7D4FFE9
:103440000023C4F80435BFF36F8FBFF34F8F10BD57
:1034500000E001400E4B10B50124C3F80445BFF352
:103460006F8FBFF34F8F01EB8204401AA14208D146
:10347000074B0022C3F80425BFF36F8FBFF34F8FB4
:1034800010BD431851F8042B1A60FFF7ADFFEDE7AC
:1034900000E0014010B5034653E8000F00EA0102C6
:1034A00043E8002494F0000FF6D110BD044A1379CC
:1034B00023B901211060918018467047852070471C
:1034C000902C0020084B1A68D2075FBFC02283F8F7
:1034D000002301221A604FF080420123C2F8183500
:1034E000024A1370704700BF00E100E0B93D0020C0
:1034F000074B00221A6082B01B680193019B4FF0BA
:1035000080430122C3F804231A6002B0704700BF51
:1035100000010040074B01221A604FF08042D2F8B0
:103520000C3403F00113B3F1011FF8D0024B002259
:103530005A71704704000040902C002007B5154BCD
:103540001A687AB100221A601B680093009B4FF042
:1035500080430122C3F808230F4B587910B95A71E0
:103560001B6898470D4B1A6882B100221A601B68CD
:103570000193019B4FF080430222C3F80823064BBE
:103580001B68012003B05DF804EB184703B05DF839
:1035900004FB00BF00010040902C0020040100400B
:1035A00000F1804382B01A68002A14BF0120002075
:1035B00004D000221A601B680193019B02B070477F
:1035C0000E4B1A78C2B902784FF08041C2F3400224
:1035D000C1F88025027802F00102C1F87825084A76
:1035E0001168C9075FBFC02182F800130121116073
:1035F00001221A700020704785207047BA3D0020D4
:1036000000E100E0014B02681A607047A02C002026
:103610004FF080434FF46072C3F8042370474FF0BB
:1036200080434FF46072C3F808237047014B0022B7
:103630001A607047A02C002010B54FF08043D3F8DB
:103640000443620707D54FF48470FFF7A9FF10B158
:103650001E4B1B689847A30608D54FF48A70FFF7E6
:103660009FFF18B11A4B00201B689847600608D5C9
:103670004FF48C70FFF794FF18B1154B01201B68B5
:103680009847210608D54FF48E70FFF789FF18B1CF
:10369000104B00201B689847E20508D54FF4907046
:1036A000FFF77EFF18B10B4B01201B689847A3055D
:1036B0000AD54FF49270FFF773FF28B1054BBDE8B0
:1036C00010401B680220184710BD00BF982C002036
:1036D0009C2C0020A02C002008B5FFF7ADFFBDE812
:1036E0000840FFF72BBF0000044A91689368CB1A8B
:1036F00023F07F438342F9D3704700BF10E000E01E
:10370000034B044A1B68B3FBF2F35843FFF7ECBFCB
:103710000C00002040420F0000F1804000F51C30FA
:1037200001230360BFF36F8FBFF34F8F704700001B
:10373000064B1B68082B01BF054B1868B0FA80F0D8
:10374000400918BF002000F0010070473001001050
:103750003401001030B54C689C4209D20025456008
:103760000968016093420CD1201E18BF012030BDB2
:1037700043600D6805600868E41A18444C600860EE
:10378000F0E70020F3E74B689A4228BF1A460B681F
:10379000C0E9003248680B68801A48601A44003853
:1037A0000A6018BF012070474B689A4228BF1A462A
:1037B00062B10B68C0E900324B689B1A4B600B6822
:1037C000101E13440B6018BF012070471346F1E729
:1037D000054B10F0800FA3F1900208BF134600F0D4
:1037E0000F0003EB00107047402D002010F0800FF9
:1037F00014BF0023102300F00F001844704700008E
:10380000054B1B68082B02BF044B00221A60044BB7
:1038100000221A70704700BF300100101C7C02406B
:10382000A52C002007B5094A00231370084AADF8FB
:10383000053013708DF8073001238DF80430054BE7
:1038400001A81B68984703B05DF804FBA42C002076
:10385000D42D0020D02D002070470000F8B54B6813
:103860000B4F934228BF13460C461D4606461A4688
:103870000968384604F0C8FFC6E900756068226828
:10388000401B60602A440038226018BF0120F8BD48
:10389000DC2D0020F8B54B68934228BF134606463E
:1038A0000D461C468BB10A4F09681A46384604F08B
:1038B000ABFF376074606B681B1B6B602B68201E4E
:1038C00023442B6018BF0120F8BD0360F2E700BF5E
:1038D000DC2D002007B500238DF804300B4BD3F806
:1038E0002025ADF80620D3F8C034094A002B136810
:1038F0000CBF4FF480714FF001210B431360054B57
:1039000001A81B68984703B05DF804FB00700240F3
:10391000AC2C0020D02D002008B50146FFF770FF29
:10392000FFF756FF837B032B0BD10846FFF75EFFA3
:10393000012303FA00F0C143BDE808400348FFF744
:10394000A9BD0368002BF0D008BD00BFA82C002043
:103950008720FFF7E1BF8620FFF7DEBF8520FFF756
:10396000DBBF8420FFF7D8BF8320FFF7D5BF8220BD
:10397000FFF7D2BF8120FFF7CFBF000008B5FFF7E8
:103980003FFF084B93F89E20032A06D1BDE808406C
:1039900005486FF00101FFF77DBDD3F89030002B93
:1039A000F4D008BDB02C0020A82C0020FFF7E6BF03
:1039B00007B5FFF725FF0D4B93F88E20032A11D092
:1039C000D3F8803073B90A486FF08071FFF762FD59
:1039D00006238DF804300823ADF80630054B01A806
:1039E0001B68984703B05DF804FB00BFB02C0020B3
:1039F000A82C0020D02D002007B5FFF701FF104BA9
:103A000093F81E21032A07D10E486FF48071FFF747
:103A100041FD03B05DF804FBD3F81031002BF8D161
:103A20006FF480710748FFF735FD06238DF80430E9
:103A30008823ADF80630044B01A81B689847E8E7D7
:103A4000B02C0020A82C0020D02D002013B5244B32
:103A5000D3F80044C3F80044BFF36F8FBFF34F8F18
:103A6000BFF36F8FBFF34F8FE1050ED51D4B0122C2
:103A70001A700023ADF805308DF8073002238DF859
:103A80000430194B01A81B689847A2050DD5154AAB
:103A900000231370ADF805308DF8073003238DF83F
:103AA0000430114B01A81B689847630516D50D4BD0
:103AB0001A789AB100221A70094B0121C3F808152F
:103AC0005820FFF729FE04238DF80430064BADF88B
:103AD00005201B688DF8072001A8984702B010BD8B
:103AE00000700240A42C0020D02D0020064B186846
:103AF000082802D104331B6823B9A0F10D035842F2
:103B000058417047012070473001001073B5012201
:103B100002FA01F51E491F4E0B6810F0800F43EAB0
:103B2000050304460B6027D000F00F021A4B33F850
:103B3000123003F1804303F51C331A684AB10022A6
:103B40001A60BFF36F8FBFF34F8F802811D0FFF73C
:103B5000E3FE316829400AD106238DF804308DF840
:103B600006408DF807100D4B01A81B68984702B05E
:103B700070BDFFF703FFECE733681D42F7D1062362
:103B80008DF804308DF806008DF80720EBE700BFB4
:103B9000AC2C0020A82C002032930E00D02D002049
:103BA00008B5054B1A781046FFF720FEBDE808401F
:103BB00001461046FFF7AABFD42D00202DE9F04F93
:103BC0007C4B87B01A780093002A40F08380DFF89E
:103BD00010A2DFF8E4B1784BDAF800101D68294034
:103BE00078D011F0012578D095FAA5F5B5FA85F5CC
:103BF0000F2D86BFA5F11004E4B245F080042046E5
:103C0000FFF7E6FD4FFA84F8B8F1000F8289064607
:103C100004F0080966DAD0E9003104A8984700B931
:103C20003060664B1B68082B02BF654B82221A600E
:103C3000009B059A049801211970B368A940DBF82C
:103C40000050134425EA0101B8F1000FB360CBF82E
:103C500000105C4B04F00F047FDAB9F1000F74D050
:103C6000C3F8A006C3F8A426FFF762FD25B2A3009F
:103C7000554A56496400002800F08180B8F1000FD1
:103C8000B2BF042528250A46514E524F1D44144404
:103C90004FF00008C6F80080BFF36F8FBFF34F8F5F
:103CA0002846FFF739FD0220FFF72AFD3368002B75
:103CB000F0D01E20FFF724FD3B689B065DD5012058
:103CC000FFF71EFD238803F1804303F51C331B68B7
:103CD000002BDFD007B0BDE8F08F91FAA1F1B1FA67
:103CE00081F585E73749B9F1000F27D0D1F8C03405
:103CF00013F4803F18BF002371683768019304A84C
:103D0000B847049A002A8AD0059A019B9A4286D223
:103D100001214FF00208A94086F80E80C9435046A1
:103D2000FFF7B8FB06238DF80C302B4B8DF80E40B7
:103D30001B688DF80F8003A898474CE704F00F0329
:103D400003F5947351F82330D6E7142101FB0433B3
:103D5000C3F80006C3F8042686E7B9F1000F04D0C3
:103D6000C3F8A007C3F8A4277EE7142101FB04339E
:103D7000C3F80007C3F8042776E702209AE7B8F1F2
:103D8000000FB4BF042028201844FFF7C5FC12EA36
:103D9000280838BF8846114938F8153003F18043A8
:103DA00003F51C331A68002A94D10A68002AF9D056
:103DB00090E700BFA52C0020AC2C002030010010A3
:103DC0001C7C02400070024032930E004E930E00A5
:103DD0000471024074740240D02D00200071024032
:103DE000A82C002038B5174BD3F86C44C3F86C44AA
:103DF000BFF36F8FBFF34F8FFFF79AFC38B1124AB2
:103E0000136823F0011103F001130C431360012523
:103E10001CB9BDE83840FFF7D1BE94FAA4F1B1FA5D
:103E200081F30F2BC8BFA3F110001946D4BF43F094
:103E30008000C0B205FA03F324EA0304FFF766FE2C
:103E4000E6E700BF00700240D82D002037B50446D9
:103E5000FFF7D6FCFFF7BCFC837B032B0DD120467C
:103E6000FFF7C4FC012303FA00F0C1430F48FFF73A
:103E700011FBFFF7A3FE03B030BD0568002DF8D19C
:103E80002046FFF7B3FC012303FA00F0C1430748C3
:103E9000FFF700FB06238DF80430054B8DF8064034
:103EA0001B688DF8075001A89847E2E7A82C00206E
:103EB000D02D00200720FFF7C9BF0620FFF7C6BF9F
:103EC0000520FFF7C3BF0420FFF7C0BF0320FFF7A3
:103ED000BDBF0220FFF7BABF0120FFF7B7BF000048
:103EE000024A00231360024A13707047D02D00204D
:103EF000A62C00204D4B4FF4006210B5C3F80024EF
:103F0000BFF36F8FBFF34F8FFFF7F0FD80B100203D
:103F1000FEF780FC464B474A1868032100287AD1F7
:103F200049F275301860116018600020FEF774FCCB
:103F3000414B1B68082B10D10020FEF76BFC3C4B5B
:103F40003E4A1868C021002867D149F275301860D0
:103F5000116018600020FEF75FFC344B0122C3F8AB
:103F60000025BFF36F8FBFF34F8FD3F800241205E6
:103F7000FBD54FF40062C3F80024BFF36F8FBFF38B
:103F80004F8F2D4B1B68082B1DD10020FEF742FCE4
:103F9000274B2A4A1868002841D149F27531196027
:103FA000106019600020FEF737FC234B1B68082BBC
:103FB00009D1234B40F2E3721A6040225A60BFF3EA
:103FC0006F8FBFF34F8F194B00248022C3F81C253D
:103FD000C3F830451B4B40F2FF121A601A4B1C60AD
:103FE000FFF70EFC194B1C70194B02221A70FFF7D9
:103FF0007DFDC8B12046FEF70DFC0D4B0D4A18683B
:1040000080B949F27531196010601960BDE810403F
:104010000020FEF701BC116087E711609AE70023DA
:104020001360BFE71460F1E710BD00BF00700240ED
:1040300000EC064014ED06403001001014EC064080
:1040400000780240AC2C0020A82C0020D42D0020A9
:10405000A62C002008B50F4B00221A70C0B9FFF73C
:1040600067FB0D4B0D4A002814BF184610460C4B39
:104070000C4AC3F80403C02182F827138021516041
:104080000122C3F80425BFF36F8FBFF34F8F08BD24
:104090000148ECE7A42C00200714E0010714C0013C
:1040A0000070024000E100E0024B1878003818BFB1
:1040B00001207047A62C0020034B1878012894BFDC
:1040C00000200120704700BFA62C002010B5002062
:1040D000FEF7A0FB124B1B7803F0FF04BBB1114AA3
:1040E000D2F82C35D3B10023C2F82C350E4B1B6807
:1040F000082B0CD10D4B186802F58F2202F21442E6
:10410000C02148B949F2753018601160186000206C
:10411000FEF782FB204610BD1160F8E71C46F6E76B
:10412000A42C0020007002403001001000EC06407A
:10413000024B034AC3F80823704700BF00700240D7
:1041400004148001024B034AC3F80423704700BFE4
:104150000070024004148001014B00221A70704765
:10416000A42C002008B5FFF733FB818108BD0000B7
:1041700073B51D4B1C78002C33D11C4A10600122F2
:104180001A702546264615F0080F65F07F00C0B26C
:104190000CBF40214FF400710190FFF7E3FF01983D
:1041A000FFF716FB0135092D867306608660EAD19C
:1041B000402100252046FFF7D5FF2046FFF708FBEA
:1041C0000134E4B2092C85730560856002D10020BA
:1041D00002B070BD14F0080F14BF4FF400714021FD
:1041E000E8E70820F4E700BFA62C0020D02D00202F
:1041F00008B5FFF7EDFA808908BD0000064A10F007
:10420000800F00F00F0314BFD2F81005D2F8140588
:10421000D84000F001007047007002402DE9F843DB
:10422000064600200F46FEF7F5FA16F00F0103D1FF
:10423000294B1B78B3424BD1284B294A1C68136881
:10424000E443A4B230461C43FFF7D0FA4FF0010814
:1042500008FA00F814EA080491463BD13046FFF70B
:10426000B7FA0C253206034605FB01F52CD51D4A8D
:104270003968154401F06041BA68B1F1005F02F09D
:1042800001021CD1CAB9184A1A6097E8070085E8EC
:104290000700D9F800005D6000229A609A73134B02
:1042A00040EA08008022C9F80000C3F80421002079
:1042B000FEF7B2FA2046BDE8F8830D4AE4E70AB9F2
:1042C0000C4AE1E70C4ADFE70C4A15440C4ADBE7ED
:1042D0001024ECE71124EAE7D42D0020AC2C0020B8
:1042E000A82C0020BC3D002087370E0000E100E034
:1042F000A9370E005D380E0095380E00283E0020CC
:1043000055370E00F8B5064600200D46FEF782FA36
:10431000330703D1154B1B78B34223D1144B154FF0
:104320001C683B68E443A4B230461C43FFF75EFAC6
:10433000012303FA00F10C4016D13046FFF748FA8A
:1043400084602B6803606B684360847338680A4B31
:10435000084380223860C3F804210020FEF75CFA8D
:104360002046F8BD1024F8E71124F6E7D42D0020EC
:10437000AC2C0020A82C002000E100E00048704791
:10438000DC2D0020044B40F48070C3F81805BFF307
:104390006F8FBFF34F8F704700700240020713D436
:1043A00000F00F0310F0800F084A0BBF03F588736D
:1043B00003F5847302EB830352F8230008BF5868A7
:1043C000431E584258417047002070470070024019
:1043D000064BC3F80C05BFF34F8F40F48070C3F851
:1043E0000C05BFF36F8FBFF34F8F70470070024013
:1043F00010B508220021044604F02EFA0E4BD3F823
:1044000080242270D3F884246270D3F88824D3F8EF
:104410008C1442EA01226280D3F89024D3F89414D9
:1044200042EA0122A280D3F89824D3F89C3442EACD
:104430000323E38010BD00BF0070024008B5FFF702
:1044400077F958B1EFF3108272B64C20FFF764F998
:104450004C20FFF761F982F3108808BDBDE80840E1
:104460004C20FFF759B9000013B5FFF7C9F90F4BFE
:104470009A7B032A06D10E486FF48031FFF70AF8C1
:1044800002B010BD1C6874B96FF480310848FFF7A2
:1044900001F806238DF80430064BADF806401B6882
:1044A00001A89847ECE7FFF7C9FFE9E7B02C002027
:1044B000A82C0020D02D00205020FFF72DB954202B
:1044C000FFF72AB9014B1878704700BFD42D0020A0
:1044D00070B50446FFF72CF902462046FFF786F92F
:1044E000012303FA00F5184EED43AAB10020FEF7B0
:1044F00091F904F00F043068144B6400054004F295
:10450000C57400203560043343F8044C18601B6800
:10451000BDE87040FEF780B91046FEF77BF93068C1
:1045200014F0080205EA000535600AD104F00F0412
:10453000074B04F5947443F82420BFF36F8FBFF347
:104540004F8F0020E4E700BFAC2C00200078024031
:1045500000700240F7B504460020FEF75BF92046E4
:10456000FFF736F905462046FFF740F9012314F01E
:10457000800F2B4E03FA00F318D1326833EA02029F
:1045800009D02046FFF7A4FF0323AB730020FEF7FA
:1045900043F903B0F0BD2A60326822EA03023260B8
:1045A000204A106820EA03001060EDE7220711D4CA
:1045B000802C1D481D4A29D004F00F0101F2DA3188
:1045C0004900016011681068C9B241F0020101435D
:1045D0001160126813493268086862EA00071F42D6
:1045E000D4D022EA03021843002332602B60032355
:1045F000AB738DF807300E4B086006221B688DF8F0
:1046000004208DF8064001A89847BFE740F2B47136
:10461000016011681068C9B241F00401D7E700BF1A
:10462000A82C0020AC2C0020007802400478024026
:10463000D02D0020FFF78EBFF7B5184B184CD3F8DC
:1046400080542368174EDA43174B37781B6892B2B1
:1046500038461A43FFF7CAF8012303FA00F0104264
:1046600002D03846FFF776FF6FF0011105F08005A4
:104670000D483570FEF70EFF236843F001032360F9
:104680000023ADF805308DF8073005238DF8043090
:10469000064B01A81B68984703B0F0BD00700240AC
:1046A000AC2C0020D42D0020A82C0020D02D0020E0
:1046B0002DE9F041544BD3F8045300222946164605
:1046C000012400297CD1FFF733F8002869D04F4B33
:1046D0001B78002B65D1960263D54D494C4E40F2B4
:1046E000A9730B604B4B1C6814F0FF041CBF1868C7
:1046F000044040F2AA700860186810F0FF001CBF68
:104700001968084040F2AB713160196811F0FF017F
:10471000B4461CBF1E68314040F2AC76CCF8006055
:104720001E6834403C4E08D037682743376040F25B
:10473000A977CCF800701C601C68354F40F2AD744E
:104740003C601C68204008D0346844EA004434606F
:1047500040F2AA743C60186018682D4840F2AE74AC
:104760000460186801400DD0CC0748BF42F4000235
:10477000C806274840F2AB74046019601B6848BF44
:1047800042F00102336833F001111CBF05F0807064
:10479000024313F0011F04D06B0544BF316042F4A3
:1047A00080621E4F02F4000622F400044FF001085C
:1047B000E4B9FFF703FA2EB3BDE8F041FFF73CBFC1
:1047C00091FAA1F31648B3FA83F39F0038440768BF
:1047D0003FB10660BFF36F8FBFF34F8F04FA03F052
:1047E000024304FA03F321EA03016AE794FAA4F509
:1047F000B5FA85F557F8253008FA05F5984724EA03
:104800000504D5E7BDE8F08100700240A52C00202A
:104810000078024004780240D82D002060930E00FA
:1048200000710240F8B5114D114A2C681268240C31
:104830002404144301271CB940F2FF132B60F8BD78
:1048400094FAA4F0B0FA80F60F2E3046C6BFA6F157
:104850001000C0B240F08000030701D4FFF77AFED9
:1048600007FA06F624EA0604E5E700BFAC2C0020B0
:10487000A82C002038B50C4C8025C4F884516368FE
:104880001B060FD5FFF7CEFF084B0022C3F8042507
:10489000BFF36F8FBFF34F8F4FF0FF32C4F88450D8
:1048A000C3F8082338BD00BF00E100E000700240FB
:1048B00008B5FFF7DFFF094BD3F80423C3F808233B
:1048C0000022C3F80025BFF36F8FBFF34F8FFEF7B1
:1048D00097FF034B01221A7008BD00BF0070024011
:1048E000A62C002010B50020FDF794FF0E4B1B787E
:1048F00003F0FF042BB900240020FDF78DFF2046B4
:1049000010BDFFF78FFF094AD2F8003413F400738B
:10491000F1D10121C2F82C15D2F80014890544BF49
:10492000C2F82C351C46E7E7A42C0020007002409A
:1049300038B5044604F00F05FFF70CFE64B2124AC6
:10494000002C4FF00103B4BFD2F81015D2F81415A3
:1049500003FA05F36FEA0303B5BF0B400B40C2F83F
:104960001035C2F81435BFF36F8FBFF34F8F074B6D
:10497000074810EA240438BF1C460123625D9340B7
:10498000014AC2F8083338BD0070024044930E005B
:1049900029930E0038B5254A254B45B2002DA8BFF6
:1049A000134600F00F010446585C224A4FF0010301
:1049B00003FA00F0C2F804032ADAD2F81005C8405E
:1049C000C00731D4D2F810058B400343C2F810352C
:1049D000BFF36F8FBFF34F8F31B3002D24DB14F083
:1049E000080521D12846FDF715FF2046FFF770FD89
:1049F0002046FEF7FBFE104901220B6802FA00F088
:104A000023EA00030B602846BDE83840FDF704BFE9
:104A1000D2F81405C840C00706D4D2F814058B405C
:104A20000343C2F81435D3E738BD00BF44930E00EA
:104A300029930E0000700240A82C0020020610B539
:104A400004460AD4030708D400F00F02074B920073
:104A50009B58012B01D1FFF73BFD054BC3F81845CF
:104A6000BFF36F8FBFF34F8F10BD00BF4474024080
:104A70000070024028B139B10023C1E90030184666
:104A8000704748F21050704748F21350704738B1E1
:104A9000006848F24053884214BF1846002070470F
:104AA00048F21050704730B148F21153914214BF90
:104AB00018460020704748F21050704770B50646FF
:104AC0000C461D46FFF7D6FF50B9B3794AB1AB4249
:104AD0000AD111462046FBF721FE08B9044B23609A
:104AE00070BD48F21050FBE748F21150F8E700BFE4
:104AF0007052464D2DE9F04383B00D4602AF044697
:104B00001149D7F82080284616469946FFF7BFFF7F
:104B100098B96B68796A5A7940465200FFF7C3FF2B
:104B200058B976B10CB9AAB002ACCDF800804B46AA
:104B3000324629462046FBF701FE0437BD46BDE854
:104B4000F08348F21050F8E77052464D10B5044615
:104B500038B149B141600B68984708B9044B2360EC
:104B600010BD48F20150FBE748F21050F8E700BFD3
:104B70006E524648F0B4134648B10768094EB74232
:104B80000AD161B12AB14368F0BC5B68184748F2AA
:104B900001531846F0BC704748F20253F9E748F257
:104BA0001053F6E76E524648F0B460B107680C4EF9
:104BB000B7420CD171B143681568DC68A5420CD3CB
:104BC000F0BC9B68184748F20150F0BC704748F2AF
:104BD0000250FAE748F21350F7E748F21450F4E7AE
:104BE0006E524648F7B50446DDE90867154601935D
:104BF000FFF7ACFF68B9019A29462046FFF7BAFFD4
:104C000038B93A463146204603B0BDE8F040FFF7D8
:104C1000CBBF03B0F0BD0000F8B50A4F0A4C0B4DF6
:104C2000E41B0121E40829700026A64203D10223D7
:104C30002B700020F8BD57F8363098470028F9D17E
:104C40000136F2E73C970E0044970E001C2E002020
:104C500001390144814200D2704703780A7800F894
:104C6000012B01F80139F5E7013A0244013982428A
:104C700000D2704711F8013F02F80139F7E770B52B
:104C800016460D46FFF7F0FF3246A9193044BDE83D
:104C90007040FFF7E9BF38B50D460446FFF7D8FF6F
:104CA00029466019BDE83840FFF7D2BFBFF34F8FE8
:104CB0000549064BCA6802F4E0621343CB60BFF3B8
:104CC0004F8F00BFFDE700BF00ED00E00400FA05D4
:104CD00030B52D4D297887B0044641B92B4A2C4870
:104CE000FBF7A2FF08B1FFF7E1FF01232B70072CB0
:104CF0003DD8DFE804F013343E3C3C043C04FDF7AF
:104D000065FF0028EFD12348FBF7B1FF0028EAD167
:104D10004FF48060FDF754FF48B3E4E70120FBF750
:104D2000F5FB4FF08043D3F81834D9035EBF1A4B1C
:104D300001221A60FBF746FF0028D4D1174D0FCD92
:104D400001AC0FC4164B059342F26663CDE9023302
:104D500001A8FF238DF80530FDF7E6FED6E741F206
:104D60003330FDF739FF41F23330FDF73BFF07B039
:104D700030BDFDF72BFF0028B5D1064A40F2666131
:104D80001046FBF75CFFC7E7402E0020A54D0E0044
:104D900018940E00202E00200800004004940E00FD
:104DA0000003005008B5024640F26661FBF747FF7A
:104DB00008B1FFF77BFFBDE808400120FBF78CBB83
:104DC00008B5FFF773FF000008B500F099FB00225B
:104DD00010464FF4805100F027F9024608B1FFF762
:104DE00065FF0548C0F57E2100F01EF90028F6D1C8
:104DF000024800F053F8F2E700000E00D14C0E001C
:104E0000014B01221A70704764320020BFF34F8FAC
:104E10000549064BCA6802F4E0621343CB60BFF356
:104E20004F8F00BFFDE700BF00ED00E00400FA0572
:104E3000024B034800221A7001F012BC64320020B9
:104E40000D4E0E00042810B5044609D8022811D8CA
:104E500015D00D4B1B68ABB12046BDE8104018477C
:104E6000831F012BF5D8094B094800221A7001F065
:104E7000F7FBEEE70749002000F01CFAE9E701F034
:104E800035FBE6E710BD00BF683200206432002029
:104E90000D4E0E00314E0E00002070474E4B70B587
:104EA0001860002001F0F2FB0446002840F08F80DB
:104EB00000F0D0FA012800F08580022800F08980F7
:104EC000002840F084804FF08043D3F80024D503BD
:104ED0001AD54FF48032C3F8002426463F4D2B6A82
:104EE000012B31D143F204031A683D4B9A421ED084
:104EF00001F03AFCAA690146002E4ED0394801F073
:104F00000DFF00284DD11FE0D3F8202502F0F80254
:104F1000A82A0AD1D3F82025D00706D5D3F8202512
:104F200002F05602C3F82025D7E70126D6E76A6BC0
:104F30001EB995F86032012BDAD02B484FF480511E
:104F400001F0ECFE0028D3D100F01AFB274A202103
:104F50001820FBF709FD08B1FFF732FF4FF080433F
:104F6000D3F80024D20742BFD3F8002442F0010254
:104F7000C3F80024FFF790FF48BB20461C4900F00F
:104F800099F91C4800F0F8FF08BB00F01FFBFBF785
:104F90006DFD20BF40BF20BFF7E795F8A132012B80
:104FA000ACD14FF08043D3F80034D907CCD401F012
:104FB0007AFB60B9104B1870104801F051FB00F0FB
:104FC00021F804E00C4B0E481C7001F049FB032053
:104FD00070BD4FF4A024B7E768320020943E002053
:104FE000DBE5B15135410020F4400020442E002083
:104FF000314E0E00454E0E0064320020014E0E0070
:105000000D4E0E0008B5074B4FF0FF32C3F880205D
:10501000C3F8802101F00BF8BDE808404FF4805040
:1050200000F03EB800E100E0F0B50646C1F30B0029
:1050300078BBB6F57F2F2CD8174CDFF860C02368FB
:10504000002A14BF062702270246072B05D902B102
:1050500023600420F0BD0122F7E71D0105F1804225
:1050600002F5F0326544C2F80068C2F80418C5F8C9
:105070000878D2F800E8764503F10103EBD1D2F8C5
:1050800004289142E7D1D5F808289742E3D123605C
:10509000E0E70720DEE700BF6C32002000E00140BF
:1050A00010B5044617480022C0F58011FFF7BCFF79
:1050B00008B1FFF785FE01F057FB134B9B6903F620
:1050C000FF7323F47F6323F00F03002219181046A7
:1050D000FFF7AAFF08B1FFF773FEEFF30583002384
:1050E000D4E9001283F3148883F3108883F31188C2
:1050F00083F3138881F308884FF0FF339E461047EF
:1051000010BD00BF00000E00943E002037B56FF0C8
:105110007F42154C057BD4F804358A4228BF0A46E5
:10512000891A13444A1E942A23F07F4305F5A87276
:105130009BBF963B96314160416044F822300B4B57
:105140004FF4F86043F001039847094BAA00134459
:1051500000221A601B680193019B4FF48033AB401F
:10516000C4F8043303B030BD0040024020940E0068
:105170004041024018490A7884B0002A29D14FF0F2
:105180008043A020D3F81834DB035EBF134B012209
:105190001A60134A0023136012680392039A114A9B
:1051A000136012680292029A0F4A13601268019209
:1051B000019A0E4A82F82403102050600C4A0D48D0
:1051C000C2F808350123036002201360C2F804030B
:1051D0000B7004B0704700BF74320020080000401C
:1051E00000410240404102404441024000E100E0F1
:1051F000004002400840024013B5284B1A6842B1F3
:1052000027490A6801320A6000221A601B6800936D
:10521000009B244B1A68A2B100221A6022481B6826
:10522000027B0193019B4FF4803393401F4AC2F8E5
:1052300008334168044601BB8168D9B9236803B1CA
:1052400098471B4B1A6832B300221A6016481B6835
:10525000027F0193019B4FF480339340134AC2F8BD
:1052600008334169044659B1103002B0BDE810401E
:10527000FFF74CBFFFF74AFFE0E7FFF747FFE0E724
:10528000816911B11030FFF741FF23691BB102B0F2
:10529000BDE81040184702B010BD00BF04410240F5
:1052A00070320020404102402000002000400240B7
:1052B0004441024070B50B4B1D682A7B4FF480338C
:1052C0009340094A0E46C2F80833044640B1FFF73E
:1052D00051FF2E6021462846BDE87040FFF716BFFB
:1052E00070BD00BF400000200040024070B5074B79
:1052F0001D680E46A8600446FFF73CFF2E6021465D
:105300002846BDE87040FFF701BF00BF4400002001
:10531000014B01221A7070477532002038B50F4BCF
:10532000DA6A5D6A9C6CAC2A10D15B6B1C44ED1A86
:105330000B482A46214603F059FA68B100F046F9B5
:1053400029462046BDE8384000F060BE002CEFD171
:1053500001F020FA0446EBE738BD00BF943E002080
:1053600000000E002DE9F74F06468846A8EB06051B
:105370002D0B02F6FF77144600F002F9082D28BF26
:1053800008252B03DFF868B001933F0B0CB92346C7
:1053900029E0BD422CBFBA46AA464FF00002514652
:1053A000304634BFDDF80490A14600F017FE0346F6
:1053B000C8B909F1030222F003024146304600F069
:1053C000FFFD034678B9DBF830304B44CBF8303082
:1053D00001F04CF9A7EB0A07A4EB09044E44C844BA
:1053E00003460028D2D0184603B0BDE8F08F00BFB6
:1053F000943E002010B501F0DFF9154A42F2040393
:10540000916CCC5803F1A34303F5471303F2D75330
:105410009C4218D1D2E90C32934216D0884204D172
:10542000BDE81040002001F021B9D21A02F6FF7247
:1054300022F47F6222F00F0219441844FFF792FF12
:105440000028EDD010BD0320FCE70020FAE700BFE4
:10545000943E002070B5264CE36AAA2B37D005D8BD
:10546000012B0BD0A52B2ED0002070BDAC2BFBD177
:10547000FFF7C0FF48BBFFF751FF26E0A66C656A47
:1054800001F072F9864229D101F06EF90022294615
:10549000FDF7C4F9A36A984202BF0123C4E90703D8
:1054A000A5610025134801F031F9134B1348002280
:1054B0001A7001F0DBF868B975B1236A012B14BFCB
:1054C00001200220D1E7FFF795FF0125EAE7FFF76A
:1054D00025FFE6E70320C8E70120C6E7236BEA1AA9
:1054E000F1181844FFF73EFF0028DAD1CCE700BFDF
:1054F000943E0020B83E00207532002011530E006B
:1055000008B540F6F8700368013302D10749FDF78A
:105510008BFF40F6FC700368013305D1BDE80840FD
:105520004FF47E21FDF780BF08BD00BF00000E00D4
:105530000A4AD2F800347BB109480023D2F8081592
:10554000D940C90748BF03F5C07103F1010348BF43
:1055500042F82100072BF1D1704700BF0000014045
:105560003546526EFFF7E4BF044B002282B01A604A
:105570001B680193019B02B0704700BF000101400E
:1055800038B50E4C2278BAB90D4BD3F800248AB145
:10559000D3F80455FFF7CCFF40F61650A842B8BF29
:1055A00028460849A0F54860FFF7A0FE064B4FF4D7
:1055B00080321A600123237038BD00BF763200208C
:1055C0000000014065550E0000E100E0034BD3F8F8
:1055D00000340BB1FFF7ACBF704700BF00000140C3
:1055E0000023C0E90232C0E900118B881A4402612D
:1055F000B1F906301A4442610888003818BF01200A
:10560000704710B5426811880346002939D002F16D
:1056100010014160148A2CB9C2680168FFF7E0FFED
:10562000204610BD9078118900F03004302C1BD139
:10563000947C04F03004302C1DD190881969091A2B
:1056400019610021907810F0300F02BF9868013086
:105650009860908A0844196901441961B2F91620CA
:10566000114459610120DCE700F0F004202C02D144
:1056700050894143E6E700F0C000802808BF0421BC
:10568000E0E70846CDE770B5466804460D46636816
:105690001A88AA4204D19B7803F00F03082B07D184
:1056A0002046FFF7AEFF6368B342F0D1002070BD23
:1056B0000120FCE743681A44426011B101399A4263
:1056C00001D10120704713F8010B01F8010FF6E733
:1056D0002DE9F34183680446884623B90026304605
:1056E00002B0BDE8F081036801220DF1070198477F
:1056F00006460028F2D0A3689DF80750013BA3603E
:105700009DF90730002B1ADA05F07F050727A368FB
:10571000002BE3D0236801220DF1070120469847B2
:105720000028DBD0A3689DF80720013BA36002F0AE
:105730007F03BB401D43130607F1070702D4C8F8D7
:105740000050CCE7232FE2D1C8E770B542689278C9
:1057500002F00F01082986B003461FD103691C68B7
:1057600000260CB906B070BD236826739D68626878
:1057700029466846FFF734FF6368049304F10C037D
:105780000593AB7803F0C003802B08BF231D684648
:1057900008BF0493FFF7D9FFA468E2E712F0C00145
:1057A00020D102F0300010280ED15A6911705A68C9
:1057B00018699378D46803F00F03072B09D10146C9
:1057C000204600F017F8CDE79006F0D55B69198008
:1057D000C8E71289214614B103F016F8C2E703F0B6
:1057E0003BF8BFE78029BDD1006900219206016026
:1057F000B8D5EBE77FB50A4601466846FFF7F0FEED
:1058000030B16846FFF7A1FF6846FFF7FAFEF7E7F9
:1058100007B05DF804FB000030B5044685B01546BE
:10582000A9B90268114B9A4211D0102D06D82A4608
:1058300069462046FFF7F0FF05B030BD10226946EB
:105840002046FFF7E9FF0028F6D0103DEDE7A368FA
:10585000AB4201D20020EFE723682A462046984752
:105860000028F7D0A268521BA260E5E7B5560E00EB
:10587000F7B50E4601A907461546FFF729FFA8B15F
:10588000019A0123D3184FF0000404D2B17801F03B
:10589000C001802901D1204608E031899942FAD31C
:1058A00029463846FFF7B8FF019BEC5403B0F0BD22
:1058B00073B50D4601A906461446FFF709FF98B1D6
:1058C000019AB2F5803F11D2AB7803F0C003802B70
:1058D00002F102010AD02B898B4207D321463046C0
:1058E00021F8022BFFF798FF02B070BD0020FBE704
:1058F00010B5034C82600022C0E90041C26010BDB7
:10590000B5560E002DE9F341002604460F46B04679
:105910003546A3682BB3236801220DF10701204609
:105920009847F0B1A3689DF807C0013B0CF07F02D7
:10593000C5F12001A360A5F1200302FA03F322FAC6
:1059400001F10B43AA401CF0800F46EA020643EA2D
:10595000080805F1070502D1C7E9006802E0462DF5
:10596000D7D1002002B0BDE8F08173B50C4669467E
:105970001646FFF7C7FF68B12389082B0CD1DDE974
:105980000045C6E90045DDE90023AB4206BFA2425F
:105990000120002002B070BD042B04D1009B3360B5
:1059A0001C460025EFE7022B4FF0000004D1009BBE
:1059B00033809CB20546E6E7012BEBD1009B3370A8
:1059C00003F0FF04F6E737B50D4669461446FFF7C6
:1059D00099FF30B12A89082ADDE9003103D1C4E9F1
:1059E000003103B030BD042A18464FEAE37108D1F4
:1059F00023601A460B468B4206BF824201200020DC
:105A0000EFE7022A04D11BB223801AB2D317F2E7C0
:105A1000012A03D15BB223705AB2F7E70020E0E716
:105A2000F7B51F4600233B700D460B70136001A9AC
:105A300004461646FFF74CFE30B9A36813B901239C
:105A40003B70002003B0F0BD019C002CF7D0E308B0
:105A500004F0070433602C70F4E713B504460529FD
:105A60001FD8DFE801F0030F151E1E1C012201A93B
:105A70002046FFF7D1FE18B19DF90430002BF5DB6D
:105A800002B010BD082200212046FFF7C5FEF7E74F
:105A900001A9FFF71DFE0028F2D0019AF3E70422C6
:105AA000F1E70020ECE773B50D4601A90446FFF7C6
:105AB0000FFE064618B90026304602B070BD94E8C5
:105AC0000F0085E80F0001998A42F4D3A960A3680A
:105AD0005B1AA360F0E700002DE9F0435768BB783C
